{
  "contractName": "Airdrop",
  "abi": [
    {
      "constant": false,
      "inputs": [],
      "name": "renounceOwnership",
      "outputs": [],
      "payable": false,
      "stateMutability": "nonpayable",
      "type": "function"
    },
    {
      "constant": true,
      "inputs": [],
      "name": "owner",
      "outputs": [
        {
          "name": "",
          "type": "address"
        }
      ],
      "payable": false,
      "stateMutability": "view",
      "type": "function"
    },
    {
      "constant": true,
      "inputs": [
        {
          "name": "",
          "type": "address"
        }
      ],
      "name": "investorDetails",
      "outputs": [
        {
          "name": "amount",
          "type": "uint256"
        },
        {
          "name": "locked",
          "type": "bool"
        }
      ],
      "payable": false,
      "stateMutability": "view",
      "type": "function"
    },
    {
      "constant": true,
      "inputs": [],
      "name": "Token",
      "outputs": [
        {
          "name": "",
          "type": "address"
        }
      ],
      "payable": false,
      "stateMutability": "view",
      "type": "function"
    },
    {
      "constant": true,
      "inputs": [
        {
          "name": "",
          "type": "address"
        }
      ],
      "name": "whitelisted",
      "outputs": [
        {
          "name": "",
          "type": "bool"
        }
      ],
      "payable": false,
      "stateMutability": "view",
      "type": "function"
    },
    {
      "constant": false,
      "inputs": [
        {
          "name": "_newOwner",
          "type": "address"
        }
      ],
      "name": "transferOwnership",
      "outputs": [],
      "payable": false,
      "stateMutability": "nonpayable",
      "type": "function"
    },
    {
      "constant": true,
      "inputs": [],
      "name": "airdropAmount",
      "outputs": [
        {
          "name": "",
          "type": "uint256"
        }
      ],
      "payable": false,
      "stateMutability": "view",
      "type": "function"
    },
    {
      "inputs": [
        {
          "name": "_token",
          "type": "address"
        },
        {
          "name": "_airdropAmount",
          "type": "uint256"
        }
      ],
      "payable": false,
      "stateMutability": "nonpayable",
      "type": "constructor"
    },
    {
      "anonymous": false,
      "inputs": [
        {
          "indexed": false,
          "name": "_investor",
          "type": "address"
        },
        {
          "indexed": false,
          "name": "_timestamp",
          "type": "uint256"
        }
      ],
      "name": "LogWhitelisted",
      "type": "event"
    },
    {
      "anonymous": false,
      "inputs": [
        {
          "indexed": true,
          "name": "previousOwner",
          "type": "address"
        }
      ],
      "name": "OwnershipRenounced",
      "type": "event"
    },
    {
      "anonymous": false,
      "inputs": [
        {
          "indexed": true,
          "name": "previousOwner",
          "type": "address"
        },
        {
          "indexed": true,
          "name": "newOwner",
          "type": "address"
        }
      ],
      "name": "OwnershipTransferred",
      "type": "event"
    },
    {
      "constant": false,
      "inputs": [
        {
          "name": "_investorAddresses",
          "type": "address[]"
        }
      ],
      "name": "whitelist",
      "outputs": [],
      "payable": false,
      "stateMutability": "nonpayable",
      "type": "function"
    },
    {
      "constant": false,
      "inputs": [],
      "name": "claimTokens",
      "outputs": [],
      "payable": false,
      "stateMutability": "nonpayable",
      "type": "function"
    },
    {
      "constant": false,
      "inputs": [
        {
          "name": "_investorsAdd",
          "type": "address[]"
        },
        {
          "name": "_tokenVal",
          "type": "uint256[]"
        }
      ],
      "name": "airdropTokenDistributionMulti",
      "outputs": [
        {
          "name": "success",
          "type": "bool"
        }
      ],
      "payable": false,
      "stateMutability": "nonpayable",
      "type": "function"
    },
    {
      "constant": false,
      "inputs": [
        {
          "name": "_investorsAdd",
          "type": "address"
        },
        {
          "name": "_tokenVal",
          "type": "uint256"
        }
      ],
      "name": "airdropTokenDistribution",
      "outputs": [
        {
          "name": "success",
          "type": "bool"
        }
      ],
      "payable": false,
      "stateMutability": "nonpayable",
      "type": "function"
    },
    {
      "constant": false,
      "inputs": [
        {
          "name": "_tokenAddress",
          "type": "address"
        }
      ],
      "name": "withdrawTokenBalance",
      "outputs": [
        {
          "name": "success",
          "type": "bool"
        }
      ],
      "payable": false,
      "stateMutability": "nonpayable",
      "type": "function"
    },
    {
      "constant": false,
      "inputs": [],
      "name": "withdrawEtherBalance",
      "outputs": [
        {
          "name": "success",
          "type": "bool"
        }
      ],
      "payable": false,
      "stateMutability": "nonpayable",
      "type": "function"
    }
  ],
  "bytecode": "0x608060405234801561001057600080fd5b50604051604080610b3483398101604052805160209091015160008054600160a060020a03338116600160a060020a0319928316179092556001805492909416911617909155600255610acc806100686000396000f3006080604052600436106100c45763ffffffff7c01000000000000000000000000000000000000000000000000000000006000350416632b865dea81146100c95780632ec0090a1461016b57806330b0e0011461018057806348c54b9d146101a4578063715018a6146101bb5780638da5cb5b146101d057806390bb61531461020157806399cfdfb314610222578063bd8aa7801461025c578063c24126761461027c578063d936547e14610291578063f2fde38b146102b2578063fc2ea8a5146102d3575b600080fd5b3480156100d557600080fd5b506040805160206004803580820135838102808601850190965280855261015795369593946024949385019291829185019084908082843750506040805187358901803560208181028481018201909552818452989b9a9989019892975090820195509350839250850190849080828437509497506102fa9650505050505050565b604080519115158252519081900360200190f35b34801561017757600080fd5b506101576103ea565b34801561018c57600080fd5b50610157600160a060020a036004351660243561044d565b3480156101b057600080fd5b506101b96105bb565b005b3480156101c757600080fd5b506101b96106e6565b3480156101dc57600080fd5b506101e5610756565b60408051600160a060020a039092168252519081900360200190f35b34801561020d57600080fd5b50610157600160a060020a0360043516610765565b34801561022e57600080fd5b50610243600160a060020a03600435166108c5565b6040805192835290151560208301528051918290030190f35b34801561026857600080fd5b506101b960048035602481019101356108e1565b34801561028857600080fd5b506101e56109d2565b34801561029d57600080fd5b50610157600160a060020a03600435166109e1565b3480156102be57600080fd5b506101b9600160a060020a03600435166109f6565b3480156102df57600080fd5b506102e8610a1d565b60408051918252519081900360200190f35b60008054819033600160a060020a0390811691161461031857600080fd5b825184511461038857604080517f08c379a000000000000000000000000000000000000000000000000000000000815260206004820152601d60248201527f496e7075742061727261792773206c656e677468206d69736d61746368000000604482015290519081900360640190fd5b5060005b83518110156103e0576103cd84828151811015156103a657fe5b9060200190602002015184838151811015156103be57fe5b9060200190602002015161044d565b15156103d857600080fd5b60010161038c565b5060019392505050565b6000805433600160a060020a0390811691161461040657600080fd5b60008054604051600160a060020a0391821692309092163180156108fc0292909190818181858888f19350505050158015610445573d6000803e3d6000fd5b506001905090565b6000805433600160a060020a0390811691161461046957600080fd5b600054600160a060020a038481169116141561050c57604080517f08c379a000000000000000000000000000000000000000000000000000000000815260206004820152603060248201527f52656369657665722073686f756c64206e6f7420626520746865206f776e657260448201527f206f662074686520636f6e747261637400000000000000000000000000000000606482015290519081900360840190fd5b600154604080517fa9059cbb000000000000000000000000000000000000000000000000000000008152600160a060020a038681166004830152602482018690529151919092169163a9059cbb9160448083019260209291908290030181600087803b15801561057b57600080fd5b505af115801561058f573d6000803e3d6000fd5b505050506040513d60208110156105a557600080fd5b505115156105b257600080fd5b50600192915050565b600160a060020a03331660009081526003602052604090205460ff1615156105e257600080fd5b600160a060020a03331660009081526004602052604090206001015460ff161561060b57600080fd5b6040805180820182526002805482526001602080840182815233600160a060020a0390811660008181526004808652898220985189559351978601805460ff1916981515989098179097559354945487517fa9059cbb0000000000000000000000000000000000000000000000000000000081529283019490945260248201939093529451929091169363a9059cbb93604480830194928390030190829087803b1580156106b857600080fd5b505af11580156106cc573d6000803e3d6000fd5b505050506040513d60208110156106e257600080fd5b5050565b60005433600160a060020a0390811691161461070157600080fd5b60008054604051600160a060020a03909116917ff8df31144d9c2f0f6b59d69b8b98abd5459d07f2742c4df920b25aae33c6482091a26000805473ffffffffffffffffffffffffffffffffffffffff19169055565b600054600160a060020a031681565b6000805433600160a060020a0390811691161461078157600080fd5b600154604080517f70a08231000000000000000000000000000000000000000000000000000000008152600160a060020a0330811660048301529151919092169163a9059cbb91859184916370a08231916024808201926020929091908290030181600087803b1580156107f457600080fd5b505af1158015610808573d6000803e3d6000fd5b505050506040513d602081101561081e57600080fd5b5051604080517c010000000000000000000000000000000000000000000000000000000063ffffffff8616028152600160a060020a03909316600484015260248301919091525160448083019260209291908290030181600087803b15801561088657600080fd5b505af115801561089a573d6000803e3d6000fd5b505050506040513d60208110156108b057600080fd5b505115156108bd57600080fd5b506001919050565b6004602052600090815260409020805460019091015460ff1682565b6000805433600160a060020a039081169116146108fd57600080fd5b6000821161090a57600080fd5b5060005b818110156109cd5760016003600085858581811061092857fe5b60209081029290920135600160a060020a0316835250810191909152604001600020805460ff19169115159190911790557f32e37a08db45f5765d8775cd79a52b24dc6683cb3e25c4795947e6817d738b4783838381811061098657fe5b90506020020135600160a060020a0316426040518083600160a060020a0316600160a060020a031681526020018281526020019250505060405180910390a160010161090e565b505050565b600154600160a060020a031681565b60036020526000908152604090205460ff1681565b60005433600160a060020a03908116911614610a1157600080fd5b610a1a81610a23565b50565b60025481565b600160a060020a0381161515610a3857600080fd5b60008054604051600160a060020a03808516939216917f8be0079c531659141344cd1fd0a4f28419497f9722a3daafe3b4186f6b6457e091a36000805473ffffffffffffffffffffffffffffffffffffffff1916600160a060020a03929092169190911790555600a165627a7a72305820ee79cca97cd09fabe066f52aa6cca20e3b5c7d5cca665de17ff571deb57586f10029",
  "source": "pragma solidity ^0.4.23;\nimport \"openzeppelin-solidity/contracts/ownership/Ownable.sol\";\nimport \"openzeppelin-solidity/contracts/token/ERC20/ERC20.sol\";\n//@title- ICO token application\n//@owner- SecureBlocks\n\ncontract Airdrop is Ownable {\n\n    struct Investor {\n        uint256 amount;\n        bool locked;\n    }\n\n    ERC20 public Token;\n    uint256 public airdropAmount; \n\n    mapping(address => bool) public whitelisted;\n    mapping(address => Investor) public investorDetails;\n\n    event LogWhitelisted(address _investor, uint256 _timestamp);\n\n    /**\n     * @dev constructor is getting tokens from the token contract\n     * @param _token Address of the token\n     * @param _airdropAmount Amount which will be claimed by the user\n     * @return ERC20 standard token \n     */\n    constructor(address _token, uint256 _airdropAmount) public {\n        Token = ERC20(_token);\n        airdropAmount = _airdropAmount;\n    }\n\n\n    /**\n     * @notice Use to whitelist the investor\n     * @param _investorAddresses Array of investors need to whitelist\n     * only be called by the owner\n     */\n\n     function whitelist(address[] _investorAddresses) external onlyOwner {\n         require(_investorAddresses.length > 0);\n         for (uint i = 0; i < _investorAddresses.length; i++) {\n             whitelisted[_investorAddresses[i]] = true;\n             emit LogWhitelisted(_investorAddresses[i], now);\n         }\n     }\n\n     /**\n      * @notice user can claim their airdrop tokens \n      */\n\n     function claimTokens() external {\n        require(whitelisted[msg.sender]);\n        require(!investorDetails[msg.sender].locked);\n        investorDetails[msg.sender] = Investor(airdropAmount, true);\n        Token.transfer(msg.sender, airdropAmount);\n     } \n    \n    /**\n     * @dev This function is used to sort the array of address and token to send tokens \n     * @param _investorsAdd Address array of the investors\n     * @param _tokenVal Array of the tokens\n     * @return tokens Calling function to send the tokens\n     */\n    function airdropTokenDistributionMulti(address[] _investorsAdd, uint256[] _tokenVal) public onlyOwner  returns (bool success){\n        require(_investorsAdd.length == _tokenVal.length, \"Input array's length mismatch\");\n        for(uint i = 0; i < _investorsAdd.length; i++ ){\n            require(airdropTokenDistribution(_investorsAdd[i], _tokenVal[i]));\n        }\n        return true;\n    }\n\n    /**\n     * @dev This function is used to get token balance at oddresses  from the array\n     * @param _investorsAdd Array if address of the investors\n     * @param _tokenVal Array of tokens to be send\n     * @return bal Balance \n     */\n    function airdropTokenDistribution(address _investorsAdd, uint256 _tokenVal) public onlyOwner returns (bool success){\n        require(_investorsAdd != owner, \"Reciever should not be the owner of the contract\");\n        require(Token.transfer(_investorsAdd, _tokenVal));\n        return true;\n    }\n\n    /**\n     * @dev This function is used to add remaining token balance to the owner address\n     * @param _tokenAddress Address of the token contract\n     * @return true  \n     */\n    function withdrawTokenBalance(address _tokenAddress) public onlyOwner returns (bool success){\n        require(Token.transfer(_tokenAddress, Token.balanceOf(address(this))));\n        return true;\n    }\n\n    /**\n     * @dev This function is used to add remaining balance to the owner address\n     * @return true \n     */\n    function withdrawEtherBalance() public onlyOwner returns (bool success){\n        owner.transfer(address(this).balance);\n        return true;\n    }\n}",
  "sourcePath": "/Users/vikas/Documents/workspace/ICOTokens/contracts/Airdrop.sol",
  "compiler": {
    "name": "solc",
    "version": "0.4.23+commit.124ca40d.Emscripten.clang"
  },
  "schemaVersion": "2.0.0",
  "updatedAt": "2018-06-25T11:09:15.312Z"
}