{
  "contractName": "Faucet",
  "abi": [
    {
      "constant": true,
      "inputs": [],
      "name": "name",
      "outputs": [
        {
          "name": "",
          "type": "string"
        }
      ],
      "payable": false,
      "stateMutability": "view",
      "type": "function"
    },
    {
      "constant": true,
      "inputs": [],
      "name": "decimals",
      "outputs": [
        {
          "name": "",
          "type": "uint8"
        }
      ],
      "payable": false,
      "stateMutability": "view",
      "type": "function"
    },
    {
      "constant": true,
      "inputs": [],
      "name": "symbol",
      "outputs": [
        {
          "name": "",
          "type": "string"
        }
      ],
      "payable": false,
      "stateMutability": "view",
      "type": "function"
    },
    {
      "anonymous": false,
      "inputs": [
        {
          "indexed": true,
          "name": "_from",
          "type": "address"
        },
        {
          "indexed": true,
          "name": "_to",
          "type": "address"
        },
        {
          "indexed": false,
          "name": "_value",
          "type": "uint256"
        }
      ],
      "name": "Transfer",
      "type": "event"
    },
    {
      "anonymous": false,
      "inputs": [
        {
          "indexed": true,
          "name": "_owner",
          "type": "address"
        },
        {
          "indexed": true,
          "name": "_spender",
          "type": "address"
        },
        {
          "indexed": false,
          "name": "_value",
          "type": "uint256"
        }
      ],
      "name": "Approval",
      "type": "event"
    },
    {
      "constant": false,
      "inputs": [
        {
          "name": "_amount",
          "type": "uint256"
        },
        {
          "name": "_recipient",
          "type": "address"
        }
      ],
      "name": "getTokens",
      "outputs": [
        {
          "name": "",
          "type": "bool"
        }
      ],
      "payable": false,
      "stateMutability": "nonpayable",
      "type": "function"
    },
    {
      "constant": false,
      "inputs": [
        {
          "name": "_to",
          "type": "address"
        },
        {
          "name": "_value",
          "type": "uint256"
        }
      ],
      "name": "transfer",
      "outputs": [
        {
          "name": "",
          "type": "bool"
        }
      ],
      "payable": false,
      "stateMutability": "nonpayable",
      "type": "function"
    },
    {
      "constant": false,
      "inputs": [
        {
          "name": "_from",
          "type": "address"
        },
        {
          "name": "_to",
          "type": "address"
        },
        {
          "name": "_value",
          "type": "uint256"
        }
      ],
      "name": "transferFrom",
      "outputs": [
        {
          "name": "",
          "type": "bool"
        }
      ],
      "payable": false,
      "stateMutability": "nonpayable",
      "type": "function"
    },
    {
      "constant": true,
      "inputs": [
        {
          "name": "_owner",
          "type": "address"
        }
      ],
      "name": "balanceOf",
      "outputs": [
        {
          "name": "balance",
          "type": "uint256"
        }
      ],
      "payable": false,
      "stateMutability": "view",
      "type": "function"
    },
    {
      "constant": false,
      "inputs": [
        {
          "name": "_spender",
          "type": "address"
        },
        {
          "name": "_value",
          "type": "uint256"
        }
      ],
      "name": "approve",
      "outputs": [
        {
          "name": "",
          "type": "bool"
        }
      ],
      "payable": false,
      "stateMutability": "nonpayable",
      "type": "function"
    },
    {
      "constant": true,
      "inputs": [
        {
          "name": "_owner",
          "type": "address"
        },
        {
          "name": "_spender",
          "type": "address"
        }
      ],
      "name": "allowance",
      "outputs": [
        {
          "name": "remaining",
          "type": "uint256"
        }
      ],
      "payable": false,
      "stateMutability": "view",
      "type": "function"
    },
    {
      "constant": true,
      "inputs": [],
      "name": "totalSupply",
      "outputs": [
        {
          "name": "",
          "type": "uint256"
        }
      ],
      "payable": false,
      "stateMutability": "view",
      "type": "function"
    }
  ],
  "bytecode": "0x620f424060005560c0604052600c60808190527f536563757265426c6f636b73000000000000000000000000000000000000000060a090815261004591600191906100a8565b506002805460ff191660121790556040805180820190915260038082527f5342540000000000000000000000000000000000000000000000000000000000602090920191825261009591816100a8565b503480156100a257600080fd5b50610143565b828054600181600116156101000203166002900490600052602060002090601f016020900481019282601f106100e957805160ff1916838001178555610116565b82800160010185558215610116579182015b828111156101165782518255916020019190600101906100fb565b50610122929150610126565b5090565b61014091905b80821115610122576000815560010161012c565b90565b6106ed806101526000396000f3006080604052600436106100a35763ffffffff7c010000000000000000000000000000000000000000000000000000000060003504166306fdde0381146100a8578063095ea7b31461013257806318160ddd1461016a57806323b872dd146101915780632570e31e146101bb578063313ce567146101df57806370a082311461020a57806395d89b411461022b578063a9059cbb14610240578063dd62ed3e14610264575b600080fd5b3480156100b457600080fd5b506100bd61028b565b6040805160208082528351818301528351919283929083019185019080838360005b838110156100f75781810151838201526020016100df565b50505050905090810190601f1680156101245780820380516001836020036101000a031916815260200191505b509250505060405180910390f35b34801561013e57600080fd5b50610156600160a060020a0360043516602435610318565b604080519115158252519081900360200190f35b34801561017657600080fd5b5061017f610382565b60408051918252519081900360200190f35b34801561019d57600080fd5b50610156600160a060020a0360043581169060243516604435610388565b3480156101c757600080fd5b50610156600435600160a060020a036024351661050a565b3480156101eb57600080fd5b506101f4610533565b6040805160ff9092168252519081900360200190f35b34801561021657600080fd5b5061017f600160a060020a036004351661053c565b34801561023757600080fd5b506100bd610557565b34801561024c57600080fd5b50610156600160a060020a03600435166024356105b2565b34801561027057600080fd5b5061017f600160a060020a0360043581169060243516610671565b60018054604080516020600284861615610100026000190190941693909304601f810184900484028201840190925281815292918301828280156103105780601f106102e557610100808354040283529160200191610310565b820191906000526020600020905b8154815290600101906020018083116102f357829003601f168201915b505050505081565b600160a060020a03338116600081815260056020908152604080832094871680845294825280832086905580518681529051929493927f8c5be1e5ebec7d5bd14f71427d1e84f3dd0314c0f7b2291e5b200ac8c7c3b925929181900390910190a350600192915050565b60005490565b6000600160a060020a038316151561039f57600080fd5b600160a060020a0384166000908152600460205260409020548211156103c457600080fd5b600160a060020a03808516600090815260056020908152604080832033909416835292905220548211156103f757600080fd5b600160a060020a038416600090815260046020526040902054610420908363ffffffff61069c16565b600160a060020a038086166000908152600460205260408082209390935590851681522054610455908363ffffffff6106ae16565b600160a060020a0380851660009081526004602090815260408083209490945587831682526005815283822033909316825291909152205461049d908363ffffffff61069c16565b600160a060020a038086166000818152600560209081526040808320338616845282529182902094909455805186815290519287169391927fddf252ad1be2c89b69c2b068fc378daa952ba7f163c4a11628f55a4df523b3ef929181900390910190a35060019392505050565b600160a060020a0316600090815260046020526040812080548301905580549091019055600190565b60025460ff1681565b600160a060020a031660009081526004602052604090205490565b6003805460408051602060026001851615610100026000190190941693909304601f810184900484028201840190925281815292918301828280156103105780601f106102e557610100808354040283529160200191610310565b600160a060020a0333166000908152600460205260408120546105db908363ffffffff61069c16565b600160a060020a033381166000908152600460205260408082209390935590851681522054610610908363ffffffff6106ae16565b600160a060020a038085166000818152600460209081526040918290209490945580518681529051919333909316927fddf252ad1be2c89b69c2b068fc378daa952ba7f163c4a11628f55a4df523b3ef92918290030190a350600192915050565b600160a060020a03918216600090815260056020908152604080832093909416825291909152205490565b6000828211156106a857fe5b50900390565b818101828110156106bb57fe5b929150505600a165627a7a723058205574cd9a3f87aa856fa68cec822b895203ba1fc3ef00a73c294c75631199af550029",
  "source": "pragma solidity ^0.4.23;\n\nimport \"openzeppelin-solidity/contracts/math/SafeMath.sol\";\n\n/*\n  token faucet is only used on testnet for testing purposes\n !!!! NOT INTENDED TO BE USED ON MAINNET !!!\n*/\n\ncontract Faucet {\n\n    using SafeMath for uint256;\n    uint256 totalSupply_ = 1000000;\n    string public name = \"SecureBlocks\";\n    uint8 public decimals = 18;\n    string public symbol = \"SBT\";\n\n    mapping(address => uint256) balances;\n    mapping(address => mapping(address => uint256)) allowed;\n\n    event Transfer(address indexed _from, address indexed _to, uint256 _value);\n    event Approval(address indexed _owner, address indexed _spender, uint256 _value);\n\n    /* Token faucet - Not part of the ERC20 standard */\n    function getTokens(uint256 _amount, address _recipient) public returns (bool) {\n        balances[_recipient] += _amount;\n        totalSupply_ += _amount;\n        return true;\n    }\n\n    /**\n     * @notice send `_value` token to `_to` from `msg.sender`\n     * @param _to The address of the recipient\n     * @param _value The amount of token to be transferred\n     * @return Whether the transfer was successful or not\n     */\n    function transfer(address _to, uint256 _value) public returns (bool) {\n        balances[msg.sender] = balances[msg.sender].sub(_value);\n        balances[_to] = balances[_to].add(_value);\n        emit Transfer(msg.sender, _to, _value);\n        return true;\n    }\n\n    /**\n     * @notice send `_value` token to `_to` from `_from` on the condition it is approved by `_from`\n     * @param _from The address of the sender\n     * @param _to The address of the recipient\n     * @param _value The amount of token to be transferred\n     * @return Whether the transfer was successful or not\n     */\n    function transferFrom(address _from, address _to, uint256 _value) public returns (bool) {\n        require(_to != address(0));\n        require(_value <= balances[_from]);\n        require(_value <= allowed[_from][msg.sender]);\n\n        balances[_from] = balances[_from].sub(_value);\n        balances[_to] = balances[_to].add(_value);\n        allowed[_from][msg.sender] = allowed[_from][msg.sender].sub(_value);\n        emit Transfer(_from, _to, _value);\n        return true;\n    }\n\n    /**\n     * @notice `balanceOf` function to get the balance of token holders\n     * @param _owner The address from which the balance will be retrieved\n     * @return The balance\n     */\n    function balanceOf(address _owner) public view returns (uint256 balance) {\n        return balances[_owner];\n    }\n\n    /**\n     * @notice `msg.sender` approves `_spender` to spend `_value` tokens\n     * @param _spender The address of the account able to transfer the tokens\n     * @param _value The amount of tokens to be approved for transfer\n     * @return Whether the approval was successful or not\n     */\n    function approve(address _spender, uint256 _value) public returns (bool) {\n        allowed[msg.sender][_spender] = _value;\n        emit Approval(msg.sender, _spender, _value);\n        return true;\n    }\n\n    /**\n     * @param _owner The address of the account owning tokens\n     * @param _spender The address of the account able to transfer the tokens\n     * @return Amount of remaining tokens allowed to spent\n     */\n    function allowance(address _owner, address _spender) public view returns (uint256 remaining) {\n        return allowed[_owner][_spender];\n    }\n\n    function totalSupply() public view returns (uint256) {\n        return totalSupply_;\n    }\n\n}\n",
  "sourcePath": "/Users/vikas/Documents/workspace/ICOTokens/contracts/Faucet.sol",
  "compiler": {
    "name": "solc",
    "version": "0.4.23+commit.124ca40d.Emscripten.clang"
  },
  "schemaVersion": "2.0.0",
  "updatedAt": "2018-06-25T11:09:15.321Z"
}